:10000000D21004000000000000000000000000000A
:1000100000000000000000000000000000000000E0
:1000200000000000000000000000000000000000D0
:1000300000000000F21000000000000000000000BE
:1000400000000000000000000000000000000000B0
:1000500000000000000000000000000000000000A0
:100060000000000000000000000000000000000090
:100070000000000000000000000000000000000080
:1021A400EFD52000F0FF270020A0B700100020008A
:1021B40034A0B700400020004420B70010110200F2
:1021C400000000001A11020000000000CEFF07000A
:1021D4008AFF07003EFF0700FEFF3700FFFF3700BE
:10210C008A1F78008B1F78008C1F78001CC0B300CE
:10211C001620EF001420EF0077FE07001CC0B30060
:10212C006BC0B3001420EF0073FE07001CC0B3009B
:10213C007BC0B3001420EF006FFE07001820EF00E7
:10214C001BC0B3001420EF006BFE07001820EF003B
:10215C002BC0B3001420EF0067FE0700401F2800BF
:10216C00800578001420EF007BFE07000B202C006C
:10217C001C0020000AC3B300E3FE07002BC0B30011
:10218C001A8D2000A9FE07004F067800CF057800B5
:08219C004F0578000000060069
:101B04008A1F78008B1F78000A0037000B45780085
:101B14008C457800ECFD07000B0037000B4578007E
:101B24008C45780048FE07000700370010C0B3005A
:101B3400050037006054E100F4FF32006154E10015
:101B4400F6FF3200F9FF3700CF0578004F05780023
:041B54000000060087
:1012CC00F0FF2F002AA3B700F0FF2F002CA3B700CC
:1012DC00F0FF2F006CA3B7003E0037001600AE00E5
:1012EC00C702A9001600AF00C702A80052003700C1
:1012FC001600AE00CC22A9001600AF00CC22A8002C
:10130C004D0037001600AE00CC42A9001600AF000D
:10131C00CC42A800480037001600AE00DEC2A9007F
:10132C001600AF00DEC2A800430037001600AE0066
:10133C00DEE2A9001600AF00DEE2A8003E00370096
:10134C001600AE00DF02A9001600AF00DF02A800F5
:10135C00390037001600AE00D202A9001600AF000B
:10136C00D202A800340037001600AE00C182A900DA
:10137C001600AF00C182A8002F0037001600AE0087
:10138C00DE82A9001600AF00DE82A8002A0037001A
:10139C001600AE00DEA2A9001600AF00DEA2A80067
:1013AC00250037001600AE00C042A9001600AF00A1
:1013BC00C042A800200037001600AE00C062A90091
:1013CC001600AF00C062A8001B00370010C0B300AD
:1013DC001A0037006054E100C0FF32006154E10094
:1013EC00C3FF32006254E100C6FF32006354E100D7
:1013FC00C9FF32006454E100CCFF32006554E100B7
:10140C00CFFF32006654E100D2FF32006754E10096
:10141C00D5FF32006854E100D8FF32006954E10076
:10142C00DBFF32006A54E100DEFF32006B54E10056
:10143C00E1FF3200E5FF370000C0B30000000600FA
:10144C00F0FF2F002AA3B700F0FF2F002CA3B7004A
:10145C00F0FF2F006CA3B7003E0037001600AE0063
:10146C00C722A9001600AF00C722A80052003700FF
:10147C001600AE00CC62A9001600AF00CC62A8002A
:10148C004D0037001600AE00CC82A9001600AF004C
:10149C00CC82A800480037001600AE00DEC2A900BE
:1014AC001600AF00DEC2A800430037001600AE00E5
:1014BC00DEE2A9001600AF00DEE2A8003E00370015
:1014CC001600AE00DF02A9001600AF00DF02A80074
:1014DC00390037001600AE00D222A9001600AF006A
:1014EC00D222A800340037001600AE00C1A2A90019
:1014FC001600AF00C1A2A8002F0037001600AE00E6
:10150C00DF82A9001600AF00DF82A8002A00370096
:10151C001600AE00DFA2A9001600AF00DFA2A800E3
:10152C00250037001600AE00C042A9001600AF001F
:10153C00C042A800200037001600AE00C062A9000F
:10154C001600AF00C062A8001B00370010C0B3002B
:10155C001A0037006054E100C0FF32006154E10012
:10156C00C3FF32006254E100C6FF32006354E10055
:10157C00C9FF32006454E100CCFF32006554E10035
:10158C00CFFF32006654E100D2FF32006754E10015
:10159C00D5FF32006854E100D8FF32006954E100F5
:1015AC00DBFF32006A54E100DEFF32006B54E100D5
:1015BC00E1FF3200E5FF370000C0B3000000060079
:101B64008A1F7800080037000B057800C5FD0700C0
:101B74000A0037000B057800CAFD0700070037008C
:101B840010C0B300050037006054E100F6FF3200D6
:101B94006154E100F7FF3200F9FF37004F05780088
:041BA4000000060037
:101288008A1F78008B1F78001A05BE0042FF0700EE
:1012980000C0B300CF0578004F05780000000600B5
:100FA0000800FA00A0792000604D8800C02A2000C7
:100FB000704D8800E02C200030628800C033200093
:100FC000406288003022EF000000280032A2B70003
:100FD0003062A900EBFD07000001BE00803E20004A
:100FE000010020004CFE07000001BE00EFFD0700DD
:100FF0004100DE006400400080007800600047008F
:101000000A88BE008100E900030035001018D000F6
:101010001090D200FBFF3700829FBE008A9FBE0067
:101020000200BE000E0190009E0190000002EB0045
:1010300042FE07004F05BE004F01BE00200798008A
:10104000310798008A9FBE000200BE000E0190008A
:101050009E0190000002EB0002FE07004F05BE005B
:101060008001780001027800600047005001D10043
:10107000C080D300640047003008E1002090E10008
:101080000700310061804100E0004A0080027800E2
:10109000010378000501780086017800020037001E
:1010A00003017800840178000280710033003A0067
:1010B000B4FD07000001BE00803E200001002000BA
:1010C00015FE07000001BE00B8FD07004100DE006C
:1010D00000A0EC0080007800600047000A88BE0095
:1010E0008100E900030035001018D0001090D200F4
:1010F000FBFF3700829FBE000200BE000E01900081
:101100009E0190000002EB000CFE07004F01BE00A4
:1011100020079800310798000200BE000E019000E1
:101120009E0190000002EB00CEFD070080017800D8
:1011300001027800600047005001D100C080D30058
:10114000640047003008E1002090E1000700310012
:1011500061804100E0004A008002780001037800CD
:10116000050178008601780002003700030178004D
:10117000840178003062A80000003700610051004F
:10118000E0805900C01188003222A90031E2A80095
:101190003342A8007EFD07007DFD07000080FA00B5
:0411A0000000060045
:0C07840000F4210001002000000006002D
:0807AC002000200000000600FF
:1007900038002000578D20000E20ED00FEFF3A00AB
:0C07A0001020ED00FCFF3A0000000600F5
:100918000000FA00020AB800500088000200B8007F
:1009280081004200032AB800810042000080FA00DA
:0409380000000600B5
:10093C000000FA0002000700F204040000000000AE
:10094C000800E20002003A00100007000000060058
:10095C00811F78000200E20002003D0060001000E0
:10096C00E08018000600E20002003D00600111006A
:10097C00E0811900050007004F00E00002003B0079
:10098C0060001000E0801800000006000200070064
:10099C000480BE00000006006022B80006022000A1
:1009AC000000D0008180D2000482D2008582D20067
:1009BC000000A8000202520083825A0003003B0090
:1009CC000202420083824A000000A1000603E900F3
:1009DC00F3FF3A00000006000080FA000000060059
:100864000000FA00020007008004040000000000F9
:100874000800E20002003A00100007000000060031
:10088400839F68000200E20002003D006000100047
:10089400E08018000600E20002003D006001110043
:1008A400E0811900050007004F00E00002003B0052
:1008B40060001000E0801800000006006022B8000C
:1008C400060220000000D0008180D2000482D20001
:1008D4008582D2000000A8000202520083825A00DE
:1008E40003003B000202420083824A000000A10090
:1008F4000603E900F3FF3A00000006000080FA0056
:0409040000000600E9
:0812A80050C0B3000000060075
:101D14008A1F78008B1F78008C1F78001200370010
:101D24000B0578008C05780060FD0700190037006A
:101D34000B0578008C05780061FD0700150037005D
:101D44000B0578008C0578003DFD07001100370075
:101D54000B0578008C05780045FD07000D00370061
:101D640010C0B3000B0037006054E100ECFF3200F8
:101D74006154E100EEFF320000C2B3000054E10000
:101D8400EFFF320000C3B3000054E100F0FF320063
:101D9400F3FF37004F067800CF0578004F05780031
:041DA4000000060035
:1012B0003BFF0700A0792000E06A88000020EF00D3
:0412C0000000060024
:0812C40060C0B3000000060049
:1012440056FF0700A0792000E06A88000020EF0024
:041254000000060090
:10127400A7FE0700C0782000E06A88000020EF0085
:041284000000060060
:100D14000800FA00C0782000604D8800802B200075
:100D2400704D8800402C200030628800002A20008A
:100D3400406288002022EF000000280022A2B700B1
:100D44002062A9008EFE07000001BE00803E200044
:100D540001002000EFFE07000001BE0092FE070024
:100D64004100DE006400400080007800600047001D
:100D74000A88BE008100E900030035001018D00085
:100D84001090D200FBFF3700829FBE008A9FBE00F6
:100D94000200BE000E0190009E0190000002EB00D4
:100DA400E5FE07004F05BE004F01BE002007980076
:100DB400310798008A9FBE000200BE000E01900019
:100DC4009E0190000002EB00A5FE07004F05BE0047
:100DD4008001780001027800600047005001D100D2
:100DE400C080D300640047003008E1002090E10097
:100DF4000700310061804100E0004A008002780071
:100E040001037800050178008601780002003700AC
:100E140003017800840178000280710033003A00F5
:100E240057FE07000001BE00803E200001002000A4
:100E3400B8FE07000001BE005BFE07004100DE00B3
:100E440000A0EC0080007800600047000A88BE0023
:100E54008100E900030035001018D0001090D20082
:100E6400FBFF3700829FBE000200BE000E0190000F
:100E74009E0190000002EB00AFFE07004F01BE0090
:100E840020079800310798000200BE000E01900070
:100E94009E0190000002EB0071FE070080017800C3
:100EA40001027800600047005001D100C080D300E7
:100EB400640047003008E1002090E10007003100A1
:100EC40061804100E0004A0080027800010378005C
:100ED40005017800860178000200370003017800DC
:100EE400840178002062A8000000370061005100EE
:100EF400E0805900401188002222A90021E2A800C4
:100F04002342A80021FE070020FE07000080FA000B
:040F140000000600D3
:101C38000200FA008A1F78008A007800D00020008D
:101C480000479800A00020001047980025003700A2
:101C5800010578007EFD07002900370001007800A3
:101C68001004E00008003200801F78008A9FBE0040
:101C78000005780076FD07004F05BE004F0078008C
:101C88000020EC00F6FF37001D0037000100780047
:101C98001004E00008003200801F78008A9FBE0010
:101CA800000578006AFD07004F05BE004F00780068
:101CB8000020EC00F6FF3700600047008A9FBE0056
:101CC8000005780062FD0700610047000005780004
:101CD8005FFD07004F05BE000900370060C0B30074
:101CE80007003700605CE100D9FF3200615CE10069
:101CF800DAFF3200625CE100E4FF3200F7FF3700F0
:0C1D08004F0578000080FA000000060083
:101258008A1F78001A85FB00E06A80000000010000
:0C1268000020EF004F0578000000060099
:100F18000000FA002302AF0001003700FDFF370090
:0C0F28002A1188000080FA00000006007A
:100F34000000FA003302AF0001003700FDFF370064
:0C0F4400AA1188000080FA0000000600DE
:102000008A1F78008B1F78008C1F780000FF070064
:10201000EB1E2800CA1A2800F7FE0700CB5D20003F
:102020000C002000EA5720005FFF07001AC0B30031
:10203000C9FE07001AC0B300DBFE0700DA8C2000DF
:1020400076FE07009EFD07001A83200073FE07003E
:102050009BFD07002A84200070FE070098FD070002
:102060002A9420006DFE070095FD07002A992000A4
:102070006AFE070092FD0700AA95200067FE070090
:102080008FFD0700AA92200064FE07008CFD070068
:102090005A81200061FE070089FD0700CA872000E1
:1020A0005EFE070086FD0700CA8520005BFE070074
:1020B00083FD07006A86200058FE070080FD0700A8
:1020C0003A8C200055FE07007DFD07000A802000A5
:1020D00052FE07007AFD0700AA8020004FFE07008D
:1020E00077FD07009A8920004CFE070074FD070069
:1020F0007A8E200049FE070071FD07004F06780028
:0C210000CF0578004F05780000000600B5
:101C10000000280004A1B7009460A8008460A90017
:101C200001002100400A20001088700000FA200006
:081C300002A1B700000006004C
:101BF8008A1F78000B05780072FF07004F057800F0
:081C080079FF0700000006004F
:1019CC001A007800C06A8800E20045001100780017
:1019DC00A04D8800E400450011007800B055880047
:0419EC0000000600F1
:1019F000780045006E00400010007800F055880027
:101A00006400450010007800105688006200450010
:0C1A10001000780000568800000006005E
:101DA8008A1F780091AB20000020EF00804878005F
:101DB800A1D520000020EF008048780081AB2000EA
:101DC8000020EF0080487800B19A20000020EF0042
:101DD800804878008A5688006B5688007C568800B0
:101DE8002A9020001DFE07004056880051568800A2
:101DF8000020EF0030568800100020002056880090
:101E08000020EF00B062880081C520000020EF00AC
:101E180080487800B19A20000020EF0080487800C0
:101E280081AB20000020EF008048780091AB2000B3
:101E380010C0B30080487800B19A20000020EF005D
:101E48008048780081AB20000020EF0080487800AF
:101E580091AB20000020EF00804878000020EF00C0
:101E68000220EF00D0558800E1558800A1C4200069
:101E780010C0B30080487800A1C420000020EF0003
:101E8800804878000020EF000220EF00804D880095
:101E9800914D8800B1C4200010C0B300804878007C
:101EA800B1C420000020EF0080487800B0D52000A1
:101EB800104078006004E100020032001AC0B3004C
:0C1EC800B4FE07004F0578000000060083
:101664000820EF0055002000060020008A007800C2
:1016740061004500000578009181FB000600E2004E
:101684000B0032000480FB008200200011000900DE
:101694000200D800010078000018DD008000EB0093
:1016A4008082420001034B000860EC00EFFF37002A
:0C16B400050078008600780000000600A9
:10199C008A1F78006154E10004003A001420EF0023
:1019AC001056800000000100030037001AC0B3007D
:1019BC0010568000000001004F0578000000060062
:100F50001400AE00CB02A9001400AF00CB02A80021
:040F60000000060087
:100F8C001400AE00D022A9001400AF00D022A8009B
:040F9C00000006004B
:100F78001400AE00D042A9001400AF00D042A8006F
:040F8800000006005F
:100F64001400AE00E2C2A9001400AF00E2C2A8005F
:040F74000000060073
:100CB0001400AE00E2E2A9001400AF00E2E2A800D6
:040CC000000006002A
:100C9C001400AE00E302A9001400AF00E302A800A8
:040CAC00000006003E
:100C88001400AE00D602A9001400AF00D602A800D6
:040C98000000060052
:100CC4001400AE00C582A9001400AF00C582A800BC
:040CD4000000060016
:100D00001400AE00E282A9001400AF00E282A80045
:040D100000000600D9
:100CEC001400AE00E2A2A9001400AF00E2A2A8001A
:040CFC0000000600EE
:100CD8001400AE00C442A9001400AF00C442A8002A
:040CE8000000060002
:101208001400AE00C462A9001400AF00C462A800B4
:0412180000000600CC
:1011F4001400AE00CB22A9001400AF00CB22A8003B
:0412040000000600E0
:101230001400AE00D062A9001400AF00D062A80074
:0412400000000600A4
:10121C001400AE00D082A9001400AF00D082A80048
:04122C0000000600B8
:1011B8001400AE00E2C2A9001400AF00E2C2A80009
:0411C800000006001D
:1011CC001400AE00E2E2A9001400AF00E2E2A800B5
:0411DC000000060009
:1011A4001400AE00E302A9001400AF00E302A8009B
:0411B4000000060031
:1011E0001400AE00D622A9001400AF00D622A80039
:0411F00000000600F5
:100C74001400AE00C5A2A9001400AF00C5A2A800CC
:040C84000000060066
:100A20001400AE00E382A9001400AF00E382A80026
:040A300000000600BC
:100A34001400AE00E3A2A9001400AF00E3A2A800D2
:040A440000000600A8
:100A0C001400AE00C442A9001400AF00C442A800F8
:040A1C0000000600D0
:1009EC001400AE00C462A9001400AF00C462A800D9
:0409FC0000000600F1
:0C1B5800B0D520000A487800000006000C
:101BA8008A1F78006054E1000F0032001420EF0013
:101BB8000056800000000100F3FA07001AC0B300C5
:101BC8000056800000000100BBFE07001420EF0053
:101BD8000056800000000100B7FE0700B6FE0700AF
:101BE800B5FE0700000037004F057800000006002A
:1016C00058012000B78525000E20ED00FEFF3A00EE
:0C16D0001020ED00FCFF3A0000000600B6
:101A1C008B1F78008A1F78008A0578006A9B20004B
:101A2C002BFF07004F05780090AB20001004E0005E
:101A3C00040032008A1F780034FF07004F0578003D
:101A4C00F9FF37008A1F7800CBC4200035FC070053
:101A5C004F0578008A1F7800DBC0B300D8FE070062
:101A6C004F05780000C0B3006004E10009003200AB
:101A7C0041C5200040C0B300804878008A1F780020
:101A8C002BC520006A9B20006062800000000100D2
:101A9C004F057800B19A20000020EF0080487800B4
:101AAC0081AB20000020EF008048780091AB200033
:101ABC0010C0B300804878000020EF000220EF0037
:101ACC00D0558800E1558800A1C4200010C0B30097
:101ADC008048780090AB20001004E0000400320035
:101AEC008A1F780009FF07004F057800F9FF3700BF
:081AFC00CF0578000000060090
:1016DC000220EF000420EF0001007800E1814000BF
:1016EC0080004500020078000420EC0000804500DA
:1016FC0090487800114078006004E100020032004C
:0C170C0083007800F4FF370000000600A6
:101718008A1F78008B1F780010C0B3006004E100B6
:1017280006003200B4FC07006004E1000300320048
:10173800EDFC070000457800C5FC0700A0D5200097
:101748001004E00036003200B0D5200010407800C8
:101758006004E100020032001420EF008D00070051
:10176800B1C420000020EF0080487800A1C4200008
:101778000020EF008048780040C520001040780025
:101788006204E10005003A002BC520008AC520004C
:1017980060628000000001000A003700CBC420000E
:1017A8008AC52000E0FC070041C5200020C0B30026
:1017B800804878002BC520008AC520006062800020
:1017C80000000100A1D520000020EF00804878002B
:1017D8000020EF00B062880081C520000020EF00E3
:1017E80080487800B19A20000020EF0080487800F7
:1017F80081AB20000020EF008048780091AB2000EA
:101808000020EF0080487800B0D520001040780014
:101818006004E100020032001AC0B3005D00070056
:1018280080AB20001004E0002A003200B0D5200070
:10183800104078006004E100020032001420EF003C
:1018480054000700B1C420000020EF008048780051
:10185800A1C420000020EF0080487800CBC42000FD
:101868008AC52000B0FC070041C520000020EF0019
:10187800804878002BC520008AC52000606280005F
:10188800000001000020EF00B062880081C5200040
:101898000020EF0080487800B19A20000020EF0077
:1018A8008048780081AB20000020EF008048780055
:1018B80091AB20000020EF0080487800B0D52000D0
:1018C800104078006004E100020032001AC0B30042
:1018D80030000700B09A20001004E0002A0032000F
:1018E800B0D52000104078006004E100020032000A
:1018F8001420EF0027000700B1C420000020EF00EB
:1019080080487800A1C420000020EF0080487800BB
:10191800CBC420008AC5200083FC070041C52000F5
:1019280010C0B300804878002BC520008AC520006D
:1019380060628000000001000020EF00B0628800B3
:1019480081C520000020EF0080487800B19A20006F
:101958000020EF008048780081AB20000020EF00D5
:101968008048780091AB20000020EF008048780084
:10197800B0D52000104078006004E1000200320079
:101988001AC0B30003000700CF0578004F057800A0
:041998000000060045
:0C0A0000B155800001000100000006005C
:100570000000FA0000000000000000002682BF001A
:080580000080FA0000000600F3
:100588000000FA002282BF00610060000080FA00CB
:040598000000060059
:100540000000FA000020EF002302AF000020EC00C2
:080550000080FA000000060023
:100558000000FA0000000000000000003682BF0022
:080568000080FA00000006000B
:10059C000000FA003282BF00610060000080FA00A7
:0405AC000000060045
:100678000000FA000020EF003302AF000020EC0079
:080688000080FA0000000600EA
:0C0AF000A14D8000010001000000060084
:100A5800B19A20000020EF008048780081AB200088
:100A68000020EF008048780091AB200010C0B30050
:100A7800804878000020EF000220EF00804D8800B9
:100A8800914D8800B1C4200010C0B30080487800A0
:100A980081C5200060C52000108040000A48780009
:100AA800B06280000020EC00B0628800010C2000D9
:100AB80060C520001008E10003003E00A1D5200019
:100AC80010C0B30080487800F10F200060C52000F6
:100AD8001008E10003003A00B06280000020ED0039
:080AE800B06288000000060066
:100AFC008B1F78001BC0B3004C040700CF05780097
:040B0C0000000600DF
:100B30001400FA008A1F78008C1F78008D1F78003F
:100B4000E0004700C01D280010000900B0587800E0
:100B50008B1F78001A20EF007CC0B3003B90200070
:100B6000CBFE0700105798001DC0B3007CC0B30037
:100B70003B902000C6FE0700205798001A20EF0087
:100B80006CC0B3008B912000C1FE07003057980065
:100B90001DC0B3006CC0B3008B912000BCFE0700E9
:100BA000CF057800804078006004E10002003A0040
:100BB00000C1B30001003700014078008080FB00D5
:100BC000720047001080FB00008150007200470057
:100BD0001080FB0080004500600047008B1F7800FC
:100BE00002067800810578000005780070FE070095
:100BF000CF05780060004700000578007DFE070003
:100C0000804278008080FB00C00020000101B80015
:100C100060AC2000020040006A004000900D7800A7
:100C2000628245008580FB00C00020000101B80001
:100C300060AC20000200400066004000301A7800DE
:100C400020127800E68045001E5090008048780011
:100C500066804500E10040003E50900080487800EA
:100C6000CF0678004F0678004F0578000080FA0024
:040C7000000006007A
:1006900078FF0700804078007004E1000200360017
:1006A00006C1B300010037000143780013C0B30056
:1006B0000C1CE100290031008380FB003000200089
:1006C0000100B800008045008A1F7800000578000E
:1006D00068FF07004F057800804378001020EF0086
:1006E000834478000644E1001A0031000880FB00D2
:1006F000000145008980FB00300020000100B800A7
:10070000008045008C1F78008A9FBE000786FB0092
:10071000820578000005780039FF07004F05BE000C
:100720004F0678000040E20008003A00606CE100EB
:1007300002003A000940780009003700616CE100CE
:1007400002003A0008407800050037001060EC0015
:10075000E4FF3700E1C14400D5FF37000020EF007F
:04076000000006008F
:100474000420EF000220EF00020045001040780045
:100484006004E100030032000420EC000220EC00D0
:0C049400F9FF37000100780000000600AE
:100400000220EF000620EF006060E10017003200DC
:100410000100450010417800618240008380450062
:10042000914278000620EC00104078001104E100B1
:10043000070032000514E10002003100F1CFB300E3
:100440000100370011C0B3000140780008003700F8
:100450006014E10001003A0004003700610056001A
:100460000006780084007800E7FF37000020EF00E6
:040470000000060082
:1005B0008A0078000020EF00000178006060E10010
:1005C0000B0032000280450090487800114078000E
:1005D0006004E100020032000420EC00000037005B
:1005E0000220EC006100560000067800F3FF37009F
:0405F0000000060001
:1005F4009FFF070080437800190407000002BE0033
:1006040010002000074378008003780040AC2000ED
:100614001038E10015003100C00020000701B800C7
:1006240060AC200002004000900078000680FB00CF
:100634000008E1000B003A00C00020000701B800E8
:1006440060AC200002004000620140001200BE00C5
:100654000400E1000588E10002003A000700780088
:10066400030037000E20EC00E8FF37000020EF0005
:04067400000006007C
:1015CC000200FA001A4078006004E1001A003200B0
:1015DC00B0D52000104078006004E1000F0032000C
:1015EC008A9FBE0047FD07004F05BE000040E20089
:1015FC00030032000020EF00004798000200370083
:10160C0010C0B30000479800600047001004E000D1
:10161C000200320000000000F1FF37008A9FBE007C
:10162C001A45780005FD07004F05BE006100450016
:10163C0000057800E3FF37008A9FBE000B45780059
:10164C00FEFC0700AAC0B300FCFC07004F05BE005F
:08165C000080FA000000060006
:100B1000F1558000010001006004E1000200320094
:100B20000020EF000100370010C0B30000000600F5
:100530000060EF00C902AF000060EC0000000600A0
:1004B0000060EF00CE22AF000060EC0000000600FC
:1004C0000060EF00CE42AF000060EC0000000600CC
:1004A0000060EF00E0C2AF000060EC00000006005A
:1004D0000060EF00E0E2AF000060EC00000006000A
:100510000060EF00E102AF000060EC0000000600A8
:100520000060EF00D402AF000060EC0000000600A5
:100500000060EF00C382AF000060EC000000060056
:1004E0000060EF00E082AF000060EC00000006005A
:1004F0000060EF00E0A2AF000060EC00000006002A
:100834000060EF00C242AF000060EC000000060060
:100844000060EF00C262AF000060EC000000060030
:100824000060EF00C922AF000060EC000000060089
:100804000060EF00CE62AF000060EC000000060064
:100814000060EF00CE82AF000060EC000000060034
:100854000060EF00E0C2AF000060EC0000000600A2
:100908000060EF00E0E2AF000060EC0000000600CD
:100764000060EF00E102AF000060EC000000060052
:100774000060EF00D422AF000060EC00000006002F
:1007E4000060EF00C3A2AF000060EC000000060050
:1007F4000060EF00E182AF000060EC000000060042
:1007D4000060EF00E1A2AF000060EC000000060042
:1007B4000060EF00C242AF000060EC0000000600E1
:1007C4000060EF00C262AF000060EC0000000600B1
:100A48000A85FB00C06A8000000001000000060063
:101ED4008A1F78000FFE07007A972000CEFE0700C5
:101EE40068062000B79C2B000E20ED00FEFF3A0090
:101EF4001020ED00FCFF3A00000000004F057800C0
:041F040000000600D3
:102220000A8020000B002000AE0209000B1D780080
:0422300000000600A4
:102234000180200000002800D4000900B0187800B4
:08224400B0587800000006000C
:1021E4003400F8003600F800801F7800200020003A
:1021F4000C000900B01F78008460A90041FF0700AB
:10220400A00120000C0009004F1078004F00780056
:0C2214003600F9003400F900004006001C
:101F0800A0C420001004E0001B003200D25580005D
:101F1800E3558000D0558000E15580006100400005
:101F2800E0804800D0558800E1558800E0C42000D2
:101F38003010E1002098E1000F003600A1C4200015
:101F48000020EF00804878000020EF000220EF001A
:101F5800D0558800E155880081C5200060C5200063
:101F6800908040000020EF0080487800B19A20005F
:101F780010C0B30080487800B0C420001004E0000E
:101F88001C003200824D8000934D8000804D8000FF
:101F9800914D800061004000E0804800804D88003D
:101FA800914D880050002000010020000010E10041
:101FB8000198E1000F003600B1C420000020EF00B6
:101FC800804878000020EF000220EF00804D880054
:101FD800914D880081C5200060C520009080400098
:101FE8000020EF008048780081AB200010C0B300CB
:081FF80080487800000006009B
:020000040001F9
:10000000415400002B4300004552000045470000CA
:040010003F000000AD
:10001400415400002B5100004941000043540000AA
:100024003D31000000410000542B0000514300000A
:10003400464700003D220000736500007276000010
:1000440069630000656400006F6D00006169000071
:100054006E2200002C3100002C3100000041000011
:10006400542B000049500000523D00003131000083
:1000740035320000303000003B26000057000000FD
:10008400415400002B51000043460000473D00004E
:10009400226E000062730000696200007363000056
:1000A400726100006D6200006C650000222C00008B
:0400B4003000000018
:1000B800415400002B430000465500004E3D00000F
:0400C8003100000003
:1000CC00415400002B4300004F500000533D0000F2
:1000DC00312C0000322C00002232000032300000A3
:0C00EC0030310000222C00003000000029
:1000F800415400002B43000047440000434F0000D8
:100108004E5400003D3100002C22000049500000F0
:10011800222C0000226900006E7400006572000045
:100128006E6500007422000000410000542B00009E
:10013800514900004F500000454E00003D3100007D
:100148002C3000002C2200005544000050220000F2
:100158002C220000373900002E3100003134000015
:100168002E380000332E0000313100003622000006
:100178002C31000036360000363600000041000001
:10018800542B00004347000041540000543F000036
:100198000041000054490000002000002D2D0000FF
:1001A8002D2000005379000073740000656D000075
:1001B800206900006E690000742000002D2D0000E9
:1001C8002D20000000410000542B00005149000080
:1001D800534500004E440000455800003D300000E3
:1001E8002C22000034380000363500003643000069
:0C01F800364300003646000022000000E4
:1002040000000000000000002B000000002300009C
:100214000000000024000000002500005C00000035
:0C022400260000000000000000000000A8
:1002300000000000003D00003F0000003F00000003
:10024000003D0000000000003A000000000D00002A
:0402500000000000AA
:10025400415400002B51000043460000473D00007C
:10026400226900006F7400006F7000006D6F000061
:1002740064650000222C0000312C000031000000D5
:10028400415400002B51000043460000473D00004C
:1002940022620000616E0000642200002C30000025
:1002A4002C3000002C380000302C000031000000FD
:1002B400415400002B51000043460000473D00001C
:1002C400226E000077730000636100006E7300000B
:1002D40065710000222C0000303300003032000031
:1002E400303100002C31000000410000542B00008C
:1002F40051490000534500004E4400004558000099
:100304003D3000002C220000343800003635000057
:100314003643000036430000364600002200000049
:10032400415400002B51000043460000473D0000AB
:10033400226E000077730000636100006E6D0000A0
:100344006F640000652200002C3300002C31000093
:0403540000000000A5
:10035800A8070000C6070000BC070000B20700009D
:10036800580600004E060000440600006206000021
:1003780080060000760600006C06000004090000F4
:1003880098020000580200006002000050020000BD
:10039800680200008802000090020000800200004D
:1003A80070020000780200001A0400002204000015
:1003B8000000000000000000000000000000000035
:1003C8000000000000000000000000000000000025
:0403D8000000000021
:0C03DC009A070000AC020000CE020000F6
:0803E80000C20000010000004A
:0200000401F009
:20000000CF000000CF00000007000000A2000000850000007F000000E7000000C1000000ED
:00000001FF
