:0400000035EF10F0D8
:1000080000C01AF001C019F002C018F003C017F0C0
:1000180004C016F005C015F0E1CF1BF0E2CF1CF0CC
:100028009EA007D0C0EC0EF09E90C10ECF6E800E41
:10003800CE6E1AC000F019C001F018C002F017C047
:1000480003F016C004F015C005F01BC0E1FF1CC08A
:04005800E2FF1100B2
:0E005C00060114B102D08B9801D08B881200DF
:0E006A00060114B102D08B9601D08B861200D5
:0E007800060114B102D08D9601D08D861200C3
:0E008600060114B102D0899401D089841200C1
:0E009400060114B102D08B9C01D08B8C12009F
:0E00A200060114B102D08B9401D08B841200A1
:0E00B000060114B102D08B9A01D08B8A120087
:0E00BE00060114B102D08B9E01D08B8E120071
:0E00CC00060114B102D08A9201D08A8212007D
:0E00DA00060114B102D08D9401D08D84120065
:0E00E800060114B102D08F9201D08F82120057
:0E00F600060114B102D08F9401D08F84120045
:0E010400060114B102D08B9801D08B88120036
:0E011200060114B102D08B9601D08B8612002C
:0E012000060114B102D08A9401D08A84120024
:0E012E00060114B102D08B9801D08B8812000C
:0E013C00060114B102D08B9601D08B86120002
:0E014A00060114B102D08F9001D08F801200F8
:0E015800060114B102D08B9A01D08B8A1200DE
:0E016600060114B102D08B9801D08B881200D4
:0E017400060114B102D08B9601D08B861200CA
:0E018200060114B102D08B9201D08B821200C4
:0E019000060114B102D08B9A01D08B8A1200A6
:0E019E00060114B102D08D9001D08D801200A8
:1001AC000F0121B302D00000FBD714C61CFF1200B4
:0E01BC00ACB202D00000FCD714C6ADFF12009A
:0E01CA00060114B102D08B9001D08B80120080
:0E01D800060114B102D0899001D08980120076
:0E01E600060114B102D08A9001D08A80120066
:0E01F400060114B102D08D9201D08D8212004E
:0E020200060114B102D0899801D0898812003B
:0E021000060114B102D08B9801D08B88120029
:0E021E00060114B102D08B9601D08B8612001F
:0E022C00060114B102D0899201D0898212001D
:0E023A00060114B102D08B9C01D08B8C1200F7
:0E024800060114B102D08B9E01D08B8E1200E5
:0E025600060114B102D08B9801D08B881200E3
:0E026400060114B102D08B9601D08B861200D9
:10027200F250026EF29E0500FF6A0150FE6E0050BF
:08028200FD6E02BEF28E1200B7
:10028A00CEC1E1FFCFC1E2FF12C6E9FF13C6EAFF02
:10029A00EECFE6FFCCC100F0CDC101F0E5DF006A88
:0202AA00120040
:1002AC001DCF01F00F0122A302D02299228901C097
:0402BC0000F012003C
:0A02C000000E9EBA010E006E12003F
:1002CA00AECF01F0ABA202D0AB98AB8801C000F070
:0202DA00120010
:0A02DC00000EA4BA010E006E12001D
:0A02E600000E80B0010E006E120041
:0A02F000000EACB2010E006E120009
:0A02FA00000E82B6010E006E120025
:0A030400000E82BA010E006E120016
:0A030E00000E82B4010E006E120012
:0A031800000E82B8010E006E120004
:0A032200000E80B8010E006E1200FC
:0A032C00000E84B2010E006E1200F4
:0C033600000E0F0121B3010E006E12003A
:0A034200000E82BE010E006E1200D4
:0A034C00000E81B0010E006E1200D9
:0A035600000E82B6010E006E1200C8
:0A036000000E82B8010E006E1200BC
:0A036A00000E82B6010E006E1200B4
:0A037400000E80B2010E006E1200B0
:0A037E00000E84B0010E006E1200A4
:0A038800000E82B0010E006E12009C
:0A039200000E82BC010E006E120086
:0A039C00000E82BA010E006E12007E
:0A03A600000E82B8010E006E120076
:0A03B000000E82B2010E006E120072
:0A03BA00000E81B2010E006E120069
:0A03C400000E86B2010E006E12005A
:0A03CE00000E81B4010E006E120053
:0A03D800000E86B4010E006E120044
:0A03E200000E86B0010E006E12003E
:0A03EC00000E82B6010E006E120032
:1003F6000B6A0A6A096A00500402F4CF09F0F3CFC7
:1004060008F001500502F4CF0BF0F3CF0AF00050CC
:100416000502F3500926F4500A22E86A0B2201501D
:100426000402F3500926F4500A22E86A0B2208C097
:1004360000F009C001F00AC002F00BC003F0120080
:1004460006010E6B0F6B106B116B000E0D1902E19E
:100456000C51000A2FE00E510825E96E0F510921B3
:10046600EA6EEECF02F002C004F00E4B0F2B1051D5
:100476000A25D96E11510B21DA6EDECF01F001C0CB
:1004860005F0104B112B025001180BE00550045CCF
:1004960003E2FF0E036E02D0010E036E03C000F0EE
:1004A6000AD0000E041801E105D0010E0C5F000E03
:0804B6000D5BCBD7006A1200B8
:1004BE0006010A6B0B6B0C6B050E0D6F000E0E6FAB
:1004CE00000E0F6F000E106F08C600F009C601F087
:1004DE00084B092B00C0E9FF01C0EAFFEECF0BF677
:1004EE00000E0C6F000E0C6F0B510C1119E0070E65
:1004FE000A15006E00C002F00BC600F00CC601F02B
:10050E00025005E0003600900136FF0FFAD700507A
:10051E000D2701500E23000E0F2310230A2BD4D7C4
:10052E000DC600F00EC601F00FC602F010C603F0A5
:02053E001200A9
:0A054000000E82B8010E006E1200DA
:10054A0008C60BF609C60CF60D0E06010D6F0A0E4B
:10055A000E6F35D00BC612F60CC613F691DE3AD0E2
:10056A000BC6E9FF0CC6EAFFEE5209E00BC612F60B
:10057A000CC613F685DE06010B4B0C2BF1D72AD0DD
:10058A000BC6E9FF0CC6EAFFEE5209E00BC612F6EB
:10059A000CC613F675DE06010B4B0C2BF1D70601C0
:1005AA000D0E126F060E136F6BDE0E0E0601126F22
:1005BA00060E136F65DE0ED0060E006E0CD0060115
:1005CA000A51000AC7E00A51010ACAE00A51020A9E
:0805DA00D7E0F2D7006A12001D
:0A05E200000E82BA010E006E120036
:0A05EC00000E82B8010E006E12002E
:0A05F600000E84B6010E006E120024
:0A060000000E82B6010E006E12001B
:0A060A00000E82BE010E006E120009
:0A061400000E82BC010E006E120001
:0A061E00000E82B6010E006E1200FD
:1006280006010A6B0B6B0C6B0D6B0A510825D96E12
:100638000B510921DA6E000EDE1805E00A4B0B2B70
:100648000C4B0D2BF2D70CC600F00DC601F01200B2
:0A065800000E84B4010E006E1200C3
:0A066200000E80B4010E006E1200BD
:0A066C00000E82B8010E006E1200AD
:100676000601016B026BFEC508F6FFC509F6D1DF60
:1006860000C000F6FEC508F6FFC509F615DF00C076
:1006960003F601C004F602C005F603C006F6010E15
:1006A600016F000E026F0101DE510601025D04E1D9
:1006B6000101DD510601015D48E20E0E006E000EDD
:1006C600016E01C604F002C605F092DEDF0E0024BC
:1006D600E96E010E0120EA6EEECF01F0EECF02F0D8
:1006E600000E021802E1005101182CE10E0E006EF8
:1006F600000E016E01C604F002C605F079DEDF0EBB
:100706000026010E0122020E0024E96E000E0120D1
:10071600EA6EEECF01F0EECF02F0EECF03F0EECFB1
:1007260004F00450061908E10350051905E10250CA
:10073600041902E10150031905E101C600F002C6E1
:1007460001F005D0014B022BAED7006A016A1200F8
:1007560001C601F002C602F00501FE6BFF6B000E3A
:100766000601061902E10551000A22E00501FE51C3
:1007760006010325E96E0501FF5106010421EA6E13
:1007860001C0E1FF02C0E2FFEECFE6FF01C0D9FFE4
:1007960002C0DAFF000EDE1803E00501FE4BFF2B58
:1007A600014A022A010E0601055F000E065BD7D735
:0207B60012002F
:1007B8000501FE6BFF6B0601006B076B01C608F6AF
:1007C80002C609F62DDF00C0FEF50050100803E24E
:1007D800100E0501FE6F010E0601076F0551075D3A
:1007E80048E2030E006E000E016E07C604F0000E0C
:1007F800056EFDDD00500325086F01500421096FC7
:100808000FDF00C000F60501FF6BFE51FF5D2EE211
:10081800030E006E000E016E07C604F0000E056E92
:10082800E6DD005006010325086F01500421096F19
:100838000501FF51060101250A6F000E02210B6F09
:1008480000C60CF6000E0D6FFADD00520CE1000E2A
:10085800061903E107C600F00DD0010E061903E1E1
:10086800FFC500F007D00501FF2BCFD70601072BE6
:06087800B5D7006A120072
:10087E0001C608F602C609F6010E06010A6F5EDE13
:02088E00120056
:10089000C7C4E1FFC8C4E2FFE2C5E6FFC5C400F07B
:0808A000C6C401F0E6DC120001
:1008A800AC0E0101D06F010ED16F140ED26F060E7F
:1008B800D36FAC0ED46F020ED56F000ED66F000E3C
:1008C800D76FDC0EC86F020EC96F000ECA6F000E1C
:1008D800CB6F360ED86F030ED96F000EDA6F000E8D
:1008E800DB6F0F01218B900E226F98849892A4AA37
:0A08F80003D01DCF00F0FBD7120063
:10090200BC0E0101D06F010ED16F140ED26F060E14
:10091200D36FCA0ED46F020ED56F000ED66F000EC3
:10092200D76FC00EC86F020EC96F000ECA6F000EDD
:10093200CB6FF00ED86F020ED96F000EDA6F000E79
:10094200DB6FAC8A900EAB6E948E949C9EAA03D001
:08095200AECF00F0FBD712004C
:10095A00C1C400F0C2C401F087DC000E001802E036
:0A096A00006A02D0010E006E1200B8
:100974000301A56BA66B010E0401D16F0301A76BE4
:10098400A86BA96BAA6B010EAF6FB20EB025E16E16
:10099400030EB121E26EE2C5E6FF010EB025006E42
:1009A400000EB121016E00C0B0F301C0B1F3000E1E
:1009B400B15D02E1C00EB05D02E3010EA06F000E56
:1009C400B11902E1B051FF0A0AE1010EB05D006EF7
:1009D400000EB159016E00C0B0F301C0B1F31200B2
:0C09E400CDC400F0CEC401F042DC1200D3
:0C09F000BDC400F0BEC401F03CDC1200ED
:1009FC00010E0501E2190BE1ADC3E1FFAEC3E2FF4D
:100A0C00E66AABC300F0ACC301F02DDC0BD0ADC378
:100A1C00E1FFAEC3E2FF010EE66EABC300F0ACC368
:060A2C0001F021DC1200C4
:100A32000501E66BE76BE86BE96BEA6BEB6BEC6B62
:100A4200ED6BEE6BEF6BF06BF16BF26BF36BF46BC8
:100A5200F56BF66BF76BF86BF96BFA6BFB6BE2C538
:100A620001F6E3C502F69D0E0601036F010E046F47
:100A7200070E056F066B9FDE00C0E7F5E2C501F6C3
:100A8200E3C502F69D0E036F010E046F070E056F9C
:100A9200010E066F90DE00C0E8F5E2C501F6E3C57F
:100AA20002F6B20E036F010E046F060E056F066B9F
:100AB20082DE00C0E9F5E2C501F6E3C502F6B20E38
:100AC200036F010E046F060E056F010E066F73DED3
:100AD20000C0EAF5000E001803E1100E0501EA6FEE
:100AE200EB0E0601016F050E026F0501E851E225CA
:100AF2000601036F000E0501E3210601046F0501E3
:100B0200E851EA5D0601056F066B000E065B22DE08
:100B1200EB0E0501FE6F050EFF6FACDD00C0E6F5C2
:100B2200000E016E0E0E046E000E056E63DCDF0E0B
:100B32000026010E01220A0E0024E96E000E012099
:100B4200EA6EE4C5E1FFE5C5E2FFEECFE6FFEECFD8
:100B5200E6FFEECFE6FFEECFE6FF040E0501E42549
:100B6200FC6F000EE521FD6F0E0E006E000E016E91
:100B7200E6C504F0000E056E3DDCDF0E0026010E18
:100B82000122060E0024E96E000E0120EA6EFCC569
:100B9200E1FFFDC5E2FFEECFE6FFEECFE6FFEECFCF
:100BA200E6FFEECFE6FF080EE425E16E000EE5213A
:100BB200E26EE7C5E6FF080EE425006E000EE521B1
:100BC200016E010E0024E16E000E0120E26EE9C505
:040BD200E6FF120028
:100BD60021D0CF0EAF6EAC9491DE6BD0670EAF6EA8
:100BE600AC948CDE66D0CF0EAF6EAC8487DE61D05F
:100BF600670EAF6EAC8482DE5CD0440EAF6EAC8402
:100C06007DDE57D0220EAF6EAC8478DE52D0060E53
:100C1600006E59D0000E006E0501DD1908E1005086
:100C2600DC1905E1120EDB1902E1DA51C00AD1E046
:100C3600000E006EDD1908E10050DC1905E1250EF5
:100C4600DB1902E1DA51800AC9E0000E006EDD19F7
:100C560008E10050DC1905E14B0EDB1902E1DA511F
:100C6600000AC1E0000E006EDD1908E10050DC1933
:100C760005E1960EDB1902E1DA51000AB9E0000E31
:100C8600006EDD1908E10050DC1905E1E10EDB1903
:100C960002E1DA51000AB1E0DD51000A08E1DC5157
:100CA600010A05E1DB51C20A02E1DA51000AAAE0B3
:100CB600AED7BC0E0101CC6F010ECD6F140ECE6FF8
:080CC600060ECF6F006A120058
:100CCE0021D0CF0EAF6EAC9415DE6BD0670EAF6E2B
:100CDE00AC9410DE66D0CF0EAF6EAC840BDE61D05E
:100CEE00670EAF6EAC8406DE5CD0440EAF6EAC8485
:100CFE0001DE57D0220EAF6EAC84FCDD52D0060E54
:100D0E00006E59D0000E006E0501DD1908E100508D
:100D1E00DC1905E1120EDB1902E1DA51C00AD1E04D
:100D2E00000E006EDD1908E10050DC1905E1250EFC
:100D3E00DB1902E1DA51800AC9E0000E006EDD19FE
:100D4E0008E10050DC1905E14B0EDB1902E1DA5126
:100D5E00000AC1E0000E006EDD1908E10050DC193A
:100D6E0005E1960EDB1902E1DA51000AB9E0000E38
:100D7E00006EDD1908E10050DC1905E1E10EDB190A
:100D8E0002E1DA51000AB1E0DD51000A08E1DC515E
:100D9E00010A05E1DB51C20A02E1DA51000AAAE0BA
:100DAE00AED7BC0E0101CC6F010ECD6F140ECE6FFF
:080DBE00060ECF6F006A12005F
:100DC60038D00F0120870D0E1F6F040E1E6F218570
:100DD60068DD7ED00F012087060E1F6F820E1E6F04
:100DE60021855FDD75D00F012087030E1F6F400E32
:100DF6001E6F218556DD6CD00F012087010E1F6FF7
:100E0600A00E1E6F21854DDD63D00F012087010ED8
:100E16001F6F150E1E6F218544DD5AD00F012087E6
:100E26001F6B8A0E1E6F21853CDD52D0060E006EAA
:100E360059D0000E006E0501DD1908E10050DC19DD
:100E460005E1120EDB1902E1DA51C00ABAE0000E22
:100E5600006EDD1908E10050DC1905E1250EDB19ED
:100E660002E1DA51800AB6E0000E006EDD1908E1F3
:100E76000050DC1905E14B0EDB1902E1DA51000ADC
:100E8600B2E0000E006EDD1908E10050DC1905E144
:100E9600960EDB1902E1DA51000AAEE0000E006E92
:100EA600DD1908E10050DC1905E1E10EDB1902E16C
:100EB600DA51000AAAE0DD51000A08E1DC51010A14
:100EC60005E1DB51C20A02E1DA51000AA7E0AED71A
:100ED600AC0E0101CC6F010ECD6F140ECE6F060E57
:060EE600CF6F006A12004C
:100EEC0021D0CF0EAF6EAC9406DD6BD0670EAF6E1B
:100EFC00AC9401DD66D0CF0EAF6EAC84FCDC61D05F
:100F0C00670EAF6EAC84F7DC5CD0440EAF6EAC8475
:100F1C00F2DC57D0220EAF6EAC84EDDC52D0060E54
:100F2C00006E59D0000E006E0501DD1908E100506D
:100F3C00DC1905E1120EDB1902E1DA51C00AD1E02D
:100F4C00000E006EDD1908E10050DC1905E1250EDC
:100F5C00DB1902E1DA51800AC9E0000E006EDD19DE
:100F6C0008E10050DC1905E14B0EDB1902E1DA5106
:100F7C00000AC1E0000E006EDD1908E10050DC191A
:100F8C0005E1960EDB1902E1DA51000AB9E0000E18
:100F9C00006EDD1908E10050DC1905E1E10EDB19EA
:100FAC0002E1DA51000AB1E0DD51000A08E1DC513E
:100FBC00010A05E1DB51C20A02E1DA51000AAAE09A
:100FCC00AED7BC0E0101CC6F010ECD6F140ECE6FDF
:080FDC00060ECF6F006A12003F
:100FE40059D00501DBB102D0929001D092800F015B
:100FF400259176D00501DBB102D0949001D0948084
:101004006FD00501DBB102D0969001D0968068D0F4
:101014000501DBB102D0949601D0948661D005011C
:10102400DBB102D0949801D094885AD00501DBB189
:1010340002D0949A01D0948A53D00501DBB102D036
:10104400949201D094824CD00501DBB102D09390EC
:1010540001D0938045D00501DBB102D0949E01D02C
:10106400948E3ED00501DBB102D0949C01D0948CC7
:1010740037D00501DBB102D0949601D0948630D0EC
:101084000501DBB102D0949801D0948829D0010ED7
:10109400006E28D00501DA51000AA3E0DA51010AF2
:1010A400A9E0DA51020AADE0DA51030AB1E0DA51FB
:1010B400040AB5E0DA51050AB9E0DA51060ABDE0DE
:1010C400DA51070AC1E0DA51080AC5E0DA51090A1F
:1010D400C9E0DA510A0ACDE0DA510B0AD1E0D7D7D8
:0610E400000E006E120078
:1010EA00DAC5DDF5DBC5DEF5DCC5DFF526D0CF0ECA
:1010FA00AF6EAC9401DCDED0670EAF6EAC9481ECBF
:10110A0004F0D8D0CF0EAF6EAC8481EC04F0D2D00C
:10111A00670EAF6EAC8481EC04F0CCD0440EAF6E97
:10112A00AC8481EC04F0C6D0220EAF6EAC8481ECA4
:10113A0004F0C0D0050E006EBFD0DDC5F6FFDEC5D7
:10114A00F7FFDFC5F8FF0900F5CF01F00900F5CF79
:10115A0002F00900F5CF03F00900F5CF04F0000E04
:10116A00006E041808E10050031805E1120E021877
:10117A0002E10150C00ABBE0DDC5F6FFDEC5F7FF9C
:10118A00DFC5F8FF0900F5CF01F00900F5CF02F03D
:10119A000900F5CF03F00900F5CF04F0000E006E48
:1011AA00041808E10050031805E1250E021802E1AF
:1011BA000150800AA1E0DDC5F6FFDEC5F7FFDFC5F5
:1011CA00F8FF0900F5CF01F00900F5CF02F0090098
:1011DA00F5CF03F00900F5CF04F0000E006E0418F5
:1011EA0008E10050031805E14B0E021802E1015014
:1011FA00000A88E0DDC5F6FFDEC5F7FFDFC5F8FFA8
:10120A000900F5CF01F00900F5CF02F00900F5CF8A
:10121A0003F00900F5CF04F0000E006E041808E18F
:10122A000050031805E1960E021802E10150000A67
:10123A00D8B46ED7DDC5F6FFDEC5F7FFDFC5F8FF08
:10124A000900F5CF01F00900F5CF02F00900F5CF4A
:10125A0003F00900F5CF04F0000E006E041808E14F
:10126A000050031805E1E10E021802E10150000ADC
:10127A00D8B454D7DDC5F6FFDEC5F7FFDFC5F8FFE2
:10128A000900F5CF01F00900F5CF02F00900F5CF0A
:10129A0003F00900F5CF04F00450000A08E10350F6
:1012AA00010A05E10250C20A02E10150000AD8B45B
:0A12BA003BD740D7000E006E120073
:1012C4005DD00501DBB102D0929401D092840F016C
:1012D40025957AD00501DBB102D0969601D0968689
:1012E40073D00501DBB102D0969401D096846CD002
:1012F4000501DBB102D0949601D0948665D0050136
:10130400DBB102D0949801D094885ED00501DBB1A2
:1013140002D0949A01D0948A57D00501DBB102D04F
:10132400989001D0988050D00501DBB102D09394FD
:1013340001D0938449D00501DBB102D0989401D047
:1013440098840F01239540D00501DBB102D0989217
:1013540001D098820F01239337D00501DBB102D06D
:10136400949601D0948630D00501DBB102D09498D4
:1013740001D0948829D0010E006E28D00501DA51DD
:10138400000A9FE0DA51010AA5E0DA51020AA9E055
:10139400DA51030AADE0DA51040AB1E0DA51050A80
:1013A400B5E0DA51060AB9E0DA51070ABDE0DA51CC
:1013B400080AC1E0DA51090AC7E0DA510A0ACDE0A5
:0E13C400DA510B0AD1E0D7D7000E006E1200EE
:1013D20059D00501DBB102D0929201D092820F0165
:1013E200259376D00501DBB102D0929801D0928884
:1013F2006FD00501DBB102D0969201D0968268D0FF
:101402000501DBB102D0949601D0948661D005012A
:10141200DBB102D0949801D094885AD00501DBB197
:1014220002D0949A01D0948A53D00501DBB102D044
:10143200949401D094844CD00501DBB102D09392F4
:1014420001D0938245D00501DBB102D0949E01D038
:10145200948E3ED00501DBB102D0949C01D0948CD5
:1014620037D00501DBB102D0949601D0948630D0FA
:101472000501DBB102D0949801D0948829D0010EE5
:10148200006E28D00501DA51000AA3E0DA51010A00
:10149200A9E0DA51020AADE0DA51030AB1E0DA5109
:1014A200040AB5E0DA51050AB9E0DA51060ABDE0EC
:1014B200DA51070AC1E0DA51080AC5E0DA51090A2D
:1014C200C9E0DA510A0ACDE0DA510B0AD1E0D7D7E6
:0614D200000E006E120086
:0614D800050E006E12007B
:1014DE00DAC5DDF5DBC5DEF5DCC5DFF527D0CF0ED1
:1014EE00AF6EAC9481EC04F0DED0670EAF6EAC94B0
:1014FE0081EC04F0D8D0CF0EAF6EAC8481EC04F04A
:10150E00D2D0670EAF6EAC8481EC04F0CCD0440E1A
:10151E00AF6EAC8481EC04F0C6D0220EAF6EAC84FC
:10152E0081EC04F0C0D0050E006EBFD0DDC5F6FF15
:10153E00DEC5F7FFDFC5F8FF0900F5CF01F00900A2
:10154E00F5CF02F00900F5CF03F00900F5CF04F056
:10155E00000E006E041808E10050031805E1120E8B
:10156E00021802E10150C00ABAE0DDC5F6FFDEC581
:10157E00F7FFDFC5F8FF0900F5CF01F00900F5CF41
:10158E0002F00900F5CF03F00900F5CF04F0000ECC
:10159E00006E041808E10050031805E1250E02182C
:1015AE0002E10150800AA1E0DDC5F6FFDEC5F7FFBE
:1015BE00DFC5F8FF0900F5CF01F00900F5CF02F005
:1015CE000900F5CF03F00900F5CF04F0000E006E10
:1015DE00041808E10050031805E14B0E021802E151
:1015EE000150000A88E0DDC5F6FFDEC5F7FFDFC556
:1015FE00F8FF0900F5CF01F00900F5CF02F0090060
:10160E00F5CF03F00900F5CF04F0000E006E0418BC
:10161E0008E10050031805E1960E021802E1015090
:10162E00000AD8B46ED7DDC5F6FFDEC5F7FFDFC5FD
:10163E00F8FF0900F5CF01F00900F5CF02F009001F
:10164E00F5CF03F00900F5CF04F0000E006E04187C
:10165E0008E10050031805E1E10E021802E1015005
:10166E00000AD8B454D7DDC5F6FFDEC5F7FFDFC5D7
:10167E00F8FF0900F5CF01F00900F5CF02F00900DF
:10168E00F5CF03F00900F5CF04F00450000A08E18D
:10169E000350010A05E10250C20A02E10150000A9C
:0C16AE00D8B43BD740D7000E006E1200ED
:1016BA00520E0B6E2B0E0C6E000E0D6E0D2EFED7FB
:0C16CA000C2EFCD70B2EFAD700001200EB
:1016D600090E0B6E1E0E0C6EE40E0D6E0D2EFED751
:0C16E6000C2EFCD70B2EFAD700001200CF
:1016F2000501DE6BDF6BE06BE16BDEC500F0DFC581
:1017020001F0DE4BDF2B0050DA25026E0150DB21A7
:10171200036EE0C500F0E1C501F0E04BE12B0050A3
:10172200DC25E96E0150DD21EA6E02C0E1FF03C053
:10173200E2FFEECFE6FF02C0E9FF03C0EAFFEE5090
:08174200000A01E0DAD71200F1
:10174A00DAC5D9FFDBC5DAFF000EDE181EE0000E8F
:10175A000101DC190EE0ADEC04F0005203E00501D2
:10176A00DD6B03D00501010EDD6FDD5302E00000E1
:10177A00F2D7DAC5E9FFDBC5EAFFEECFE2F548ECBE
:10178A0004F00501DA4BDB2BDBD7DCC5E2F548ECCC
:0E179A0004F00A0E0501E26F48EC04F01200A4
:1017A800010E016E000E01180BE0F2EC04F0000EC1
:1017B800001806E0F8EC04F000C0E2F5BAEC04F01A
:1017C8000301A05354E0000E0101DC1904E00501F7
:1017D800E26BFEEC04F00301AF6B9F6B020E040199
:1017E800BC1913E1B4C4E1FFB5C4E2FFB20EE66E62
:1017F800030EE66EBA0EE66E040EE66EB2C400F094
:10180800B3C401F039EC01F020D0B20E0501E26F4B
:10181800030EE36FB20EE46F040EE56F19EC05F0EA
:10182800020E0401BC6FB4C4E1FFB5C4E2FFB20EFE
:10183800E66E030EE66EBA0EE66E040EE66EB2C4EF
:1018480000F0B3C401F039EC01F00301A06BB06BF8
:10185800B16BB26BA56BA66B0401D16B000E0101D5
:10186800DC1905E0010E0501E26FFEEC04F003014E
:10187800A6533BE0000E0101DC1904E00501E26B10
:10188800FEEC04F00301AF6B9F6BB20E0501E26F33
:10189800030EE36FB20EE46F040EE56F19EC05F06A
:1018A8000401BC6BB4C4E1FFB5C4E2FFB20EE66E3E
:1018B800030EE66EBA0EE66E040EE66EB2C400F0D3
:1018C800B3C401F039EC01F00301B06BB16BB26B3A
:1018D800A56BA66B0401D16B000E0101DC1905E0B4
:1018E800010E0501E26FFEEC04F00301A5533CE094
:1018F800000E0101DC1904E00501E26BFEEC04F0C6
:101908000301AF6B9F6BB20E0501E26F030EE36F2D
:10191800B20EE46F040EE56F19EC05F0010E040138
:10192800BC6FB4C4E1FFB5C4E2FFB20EE66E030EAD
:10193800E66EBA0EE66E040EE66EB2C400F0B3C4EC
:1019480001F039EC01F00301B06BB16BB26BA56B20
:10195800A66B0401D16B000E0101DC1905E0010E34
:0A1968000501E26FFEEC04F012002E
:10197200300E0501DA25006E000EDB21016E000E2D
:10198200DC21026E1C0E0024F66E000E0120F76EA2
:10199200000E0220F86E0900F5CFC1F40900F5CF60
:1019A200C2F40900F5CFC3F40900F5CFC4F4080E60
:1019B200DA25F66E000EDB21F76E000EDC21F86EE2
:1019C2000900F5CFABF30900F5CFACF30900F5CF71
:1019D200ADF30900F5CFAEF3040EDA25F66E000E74
:1019E200DB21F76E000EDC21F86E0900F5CFC9F499
:1019F2000900F5CFCAF40900F5CFCBF40900F5CF01
:041A0200CCF412000E
:101A0600DAC5F6FFDBC5F7FFDCC5F8FF0900F5CF41
:101A1600C5F40900F5CFC6F40900F5CFC7F40900EF
:101A2600F5CFC8F4040E0501DA25F66E000EDB21AB
:101A3600F76E000EDC21F86E0900F5CFBDF4090043
:101A4600F5CFBEF40900F5CFBFF40900F5CFC0F419
:101A5600080EDA25F66E000EDB21F76E000EDC218D
:101A6600F86E0900F5CFCDF40900F5CFCEF40900E4
:0C1A7600F5CFCFF40900F5CFD0F412003A
:101A82001CD0D3C5DAF5D4C5DBF5D5C5DCF575ECCC
:101A920008F01ED0D3C5DAF5D4C5DBF5D5C5DCF523
:101AA2001DDD16D0D3C5DAF5D4C5DBF5D5C5DCF519
:101AB20012DD0ED0010E006E0BD00501D251000ACC
:101AC200E0E0D251010AE6E0D251020AEBE0F2D79D
:021AD200120000
:101AD40017D0D3C5DAF5D4C5DBF5F2EC07F01BD08B
:101AE400D3C5DAF5D4C5DBF572DC15D0D3C5DAF588
:101AF400D4C5DBF562EC09F00ED0010E006E0BD0FC
:101B04000501D251000AE5E0D251010AE9E0D251BF
:081B1400020AECE0F2D7120016
:101B1C00D5C5DAF5D6C5DBF5D7C5DCF56EDFD2C594
:0E1B2C00DAF5D3C5DBF5D4C5DCF51DDF1200FC
:101B3A00010ECD6E9E90C10ECF6E800ECE6E9D8030
:061B4A00C00EF26E120055
:101B5000D20E0501DA6F040EDB6FD2C5DCF5D3C5FA
:101B6000DDF5C7DD0401D15302E01EDEFBD7D2C58F
:101B7000E2F5D3C5E3F5B20E0501E46F040EE56F9F
:101B800019EC05F0D2C5DAF5D3C5DBF50D0EDC6F27
:101B9000DCDD000E016E000E011815E0040E0401DC
:101BA000BC6FB4C4E1FFB5C4E2FFD20EE66E040E12
:101BB000E66EBA0EE66E040EE66EB2C400F0B3C472
:101BC00001F039EC01F00301A56BA66B010E0401D5
:101BD000D16F0301A16BA26BA36BA46B010E9F6F6E
:0C1BE0000401D15302E0E0DDFBD712004D
:061BEC00D2C5DCF112007D
:101BF2000401D16B0301A06BA66BA56BD2C5E9F101
:101C0200D3C5EAF1D4C5EBF1D5C5ECF1D6C5E5F102
:101C1200D7C5E6F1D8C5E7F1D9C5E8F19C0E0601B2
:101C2200086F010E096F5FEC02F000C0E1F101C024
:101C3200E2F102C0E3F103C0E4F10101DF6BE06B0A
:101C4200010EDD6F000EDE6F0301B06BB16BB26B84
:101C5200A56BA66B010E0401D16F0301A56BA66BE8
:101C62000401D16B0301A16BA26BA36BA46B010EE8
:101C72009F6F9F6BA76BA86BA96BAA6B010EAF6FCF
:101C8200AF6B000E0101DC1905E0010E0501E26FE8
:061C9200FEEC04F012005C
:101C9800000E0501D21928E0CBC4E1FFCCC4E2FF55
:101CA800E66AC9C400F0CAC401F039EC01F00FDDDE
:101CB800CBC4E1FFCCC4E2FF010EE66EC9C400F05C
:101CC800CAC401F039EC01F0F4DCCBC4E1FFCCC4A8
:101CD800E2FFE66AC9C400F0CAC401F039EC01F0B9
:0A1CE800E8DCE7DCE6DC00D01200C7
:101CF2002FD0D3C5DAF5D4C5DBF5D5C5DCF5D6C50D
:101D0200DDF567EC06F032D0D3C5DAF5D4C5DBF5E4
:101D1200D5C5DCF5D6C5DDF5EBEC05F027D0D3C58E
:101D2200DAF5D4C5DBF5D5C5DCF5D6C5DDF5E3ECD2
:101D320006F01CD0D3C5DAF5D4C5DBF5D5C5DCF584
:101D4200D6C5DDF576EC07F011D0010E006E0ED08F
:101D52000501D251000ACDE0D251010AD5E0D2519B
:0E1D6200020ADDE0D251100AE5E0EFD71200D0
:101D70000900F5CFE6FF0006FBE10106F9E11200DC
:101D800003019F5338E0A1C304F0A2C305F0A3C32D
:101D900006F0A4C307F0010EA125006E000EA221DB
:101DA000016E000EA321026E000EA421036E00C07E
:101DB000A1F301C0A2F302C0A3F303C0A4F3075030
:101DC0000401B95D08E10650B85D05E10550B75D55
:101DD00002E10450B65D0FE203019F6BA16BA26BA1
:101DE000A36BA46BB20EB025E16E030EB121E26EBF
:101DF000E66A010EA56F0301AF5337E0A7C304F0F5
:101E0000A8C305F0A9C306F0AAC307F0010EA725D1
:101E1000006E000EA821016E000EA921026E000EB8
:101E2000AA21036E00C0A7F301C0A8F302C0A9F362
:101E300003C0AAF30750000808E10650000805E1B6
:101E40000550000802E1045005080FE20301AF6BE2
:101E5000A76BA86BA96BAA6BB20EB025E16E030E3F
:0C1E6000B121E26EE66A010EA66F1200CE
:101E6C000501D26BD36B010ED46F2EDE0501D26B44
:101E7C00060ED36F010ED46F27DE0501D26B070E51
:101E8C00D36F010ED46F20DE0501D26B010ED36F20
:101E9C00D46B1ADE0501D26B020ED36FD46B14DE39
:101EAC000501D26BA50ED36F220ED46F000ED56F29
:101EBC00E2DD020E0501D26F000ED36FC20ED46F9D
:101ECC00010ED56F000ED66F0EDF1B0E0601086FCC
:0E1EDC00010E096F020E0A6FA5EC02F0120053
:101EEA005EDC310E0501D26F010ED36F2CDE020EBD
:101EFA000A6E960E0B6ED80E0C6E080E0D6E0D2E17
:101F0A00FED70C2EFCD70B2EFAD70A2EF8D70000D4
:021F1A001200B3
:101F1C000EDE230E0501D26F220ED36F000ED46F8E
:101F2C00990ED56F220ED66F000ED76FF1DD7E0E97
:101F3C00D26F080ED36F010ED46F060ED56FDC0E68
:101F4C00D66F050ED76F000ED86FD96F4CDE010E11
:101F5C000501D26F45DE010ED26F98DEC40E05016D
:101F6C00D26F010ED36FEEDD5DEC0BF0BC0E0501F4
:101F7C00D26F000ED36FE6DD5DEC0BF0A20E050107
:101F8C00D26F000ED36FDEDD5DEC0BF08A0E050117
:101F9C00D26F000ED36FD6DD5DEC0BF0020E050197
:101FAC00D26F010ED36FCEDD5DEC0BF0E50E0501AB
:101FBC00D26F000ED36FC6DD5DEC0BF0CD0E0501BC
:101FCC00D26F000ED36FBEDD5DEC0BF0440E05013D
:101FDC00D26F000ED36FB6DD5DEC0BF0270E050152
:101FEC00D26F000ED36FAEDD5DEC0BF01D0E050154
:101FFC00D26F000ED36FA6DD5DEC0BF0740E0501F5
:10200C00D26F000ED36F9EDD5DEC0BF06A0E0501F6
:10201C00D26F000ED36F96DD5DEC0BF0600E0501F8
:10202C00D26F000ED36F8EDD5DEC0BF0910E0501BF
:10203C00D26F010ED36F86DD5DEC0BF0670E0501E0
:10204C00D26F010ED36F7EDD5DEC0BF04C0E0501F3
:0E205C00D26F010ED36F76DD5DEC0BF012003B
:0E206A0055EC11F0FEDE55DF3BDFFED7FFD751
:1022AA0010EE1DF0AB0E006E020E016E780EF66E89
:0E22BA00200EF76E000EF86EB8EC0EF012005B
:0A20780041542B4346554E3D310004
:1020820041542B434744434F4E543D312C22495037
:0D209200222C22696E7465726E6574220046
:10209F0041542B514346473D227365727669636500
:0C20AF00646F6D61696E222C312C3100D1
:0A20BB0041542B43455245473F00B6
:0A20C50041542B43474154543F009F
:1020CF0041542B434F50533D312C322C223232305E
:0620DF003031222C30001C
:1020E50041542B514346473D2262616E64222C3098
:0820F5002C302C38302C310096
:1020FD0041542B514346473D226E627369627363AF
:0A210D0072616D626C65222C3000D7
:1021170041542B4950523D3131353230303B2657EF
:0121270000B7
:1021280041542B514346473D22696F746F706D6F60
:082138006465222C312C3100FA
:1021400041542B514346473D226E777363616E7352
:0D2150006571222C3033303230312C3100DB
:10215D0041542B514346473D226E777363616E6D3B
:09216D006F6465222C332C310053
:10217600202D2D2D2053797374656D20696E697439
:06218600202D2D2D20008C
:10218C0041542B514953454E4445583D302C223433
:0B219C00383635364336433646220005
:1021A70041542B514953454E4445583D302C223418
:0B21B7003836353643364336462200EA
:1021C20041542B51494F50454E3D312C302C225514
:1021D2004450222C2237392E3131342E38332E31CD
:0A21E2003136222C31363636360035
:0B21EC0041542B51494143543D310048
:0121F70000E7
:1021F8000000002B0000230000240000255C0026BE
:052208000000000000D1
:10220D000000003D3F003F00003D00003A00000D82
:02221D000000BF
:04221F0041544900DD
:10222300D8011406CA0114069E011406740114068B
:10223300660114069001140682011406E6011406D1
:10224300480214063A0214066402140656021406DF
:10225300E6020000880300007E030000560300002E
:10226300A60300009C030000B00300004C03000021
:1022730042030000920300006A03000060030000B1
:01228300005A
:012284000059
:012285000058
:012286000057
:012287000056
:102288000000000000000000000000000000000046
:012298000045
:0C229900BC011406CA020000C0020000D4
:0422A50000C2010072
:020000040030CA
:0E00000015137F7CF98B91FFFFC0FFE0FF40DE
:00000001FF
